:020000001628C0
:0E0006008312031321088A00200882000800DC
:1000140003208A110A128000840AA00A0319A10A83
:08002400F003031D0A28080087
:10002C0083160313860183128601C0308316870062
:10003C0083128712871A2428071225280716071AF5
:10004C00292887112A28871587192E2807112F2868
:10005C000715071933288710342887148718382870
:10006C000710392807148316880183128801071B8F
:10007C009D288712871A4428071245280716071A45
:10008C00492807104A2807142330F1000030F200E9
:10009C008030F000803072067002031D5728710802
:1000AC00003C03189D28871571088600710888008C
:1000BC008030F000803072067002031D67287108D2
:1000CC00203C03186C28871407116E28871007151D
:1000DC00071F71289D280B30FB002630FC005D307B
:1000EC00FD00FD0B7728FC0B7728FB0B7728000015
:1000FC00000000307206031D852820307106031D98
:10010C008C281A30F1000030F2009828003072066A
:10011C00031D922810307106031D98280A30F10037
:10012C000030F2000130F102031CF2034E28071BD1
:10013C00F02887118719A4280711A5280715071976
:10014C00A9288710AA2887141530F1000030F20076
:10015C008030F000803072067002031DB7287108E1
:10016C00003C0318F02807147108860071088800F9
:10017C008030F000803072067002031DC7287108B1
:10018C00123C0318CC2807168712CE2807128716A4
:10019C00071FD128F0280B30FB002630FC005D3007
:1001AC00FD00FD0BD728FC0BD728FB0BD728000034
:1001BC00000000307206031DE52810307106031D87
:1001CC00EB280A30F1000030F2000130F102031C80
:1001DC00F203AE28071F3F29871B3F29871D0829DB
:1001EC00871C08291F30FB007130FC001E30FD00FD
:1001FC00FD0BFE28FC0BFE28FB0BFE2800008710D5
:10020C0007153F29871D1C29071D1C29871B0F2932
:10021C000C29071107191429871115298715071699
:10022C00071A1A2907101B2907143F29071C302904
:10023C00071E30291F30FB007130FC001E30FD0002
:10024C00FD0B2629FC0B2629FB0B26290000071287
:10025C0087163F29871B332930298712871A38299B
:10026C00071039290714871487183E2987113F294D
:06027C0087153D28402912
:02400E004A2F37
:00000001FF
